{
  "_format": "hh-sol-artifact-1",
  "contractName": "BigBangTheory",
  "sourceName": "contracts/BigBangTheory.sol",
  "abi": [
    {
      "inputs": [
        {
          "internalType": "address",
          "name": "_VRFCoordinator",
          "type": "address"
        },
        {
          "internalType": "address",
          "name": "_LinkToken",
          "type": "address"
        },
        {
          "internalType": "bytes32",
          "name": "_keyhash",
          "type": "bytes32"
        },
        {
          "internalType": "contract IERC20",
          "name": "_token",
          "type": "address"
        }
      ],
      "stateMutability": "nonpayable",
      "type": "constructor"
    },
    {
      "anonymous": false,
      "inputs": [
        {
          "indexed": true,
          "internalType": "address",
          "name": "owner",
          "type": "address"
        },
        {
          "indexed": true,
          "internalType": "address",
          "name": "approved",
          "type": "address"
        },
        {
          "indexed": true,
          "internalType": "uint256",
          "name": "tokenId",
          "type": "uint256"
        }
      ],
      "name": "Approval",
      "type": "event"
    },
    {
      "anonymous": false,
      "inputs": [
        {
          "indexed": true,
          "internalType": "address",
          "name": "owner",
          "type": "address"
        },
        {
          "indexed": true,
          "internalType": "address",
          "name": "operator",
          "type": "address"
        },
        {
          "indexed": false,
          "internalType": "bool",
          "name": "approved",
          "type": "bool"
        }
      ],
      "name": "ApprovalForAll",
      "type": "event"
    },
    {
      "anonymous": false,
      "inputs": [
        {
          "indexed": true,
          "internalType": "address",
          "name": "from",
          "type": "address"
        },
        {
          "indexed": true,
          "internalType": "address",
          "name": "to",
          "type": "address"
        },
        {
          "indexed": true,
          "internalType": "uint256",
          "name": "tokenId",
          "type": "uint256"
        }
      ],
      "name": "Transfer",
      "type": "event"
    },
    {
      "anonymous": false,
      "inputs": [
        {
          "indexed": false,
          "internalType": "address",
          "name": "buyer",
          "type": "address"
        },
        {
          "indexed": false,
          "internalType": "uint256",
          "name": "amountOfTokens",
          "type": "uint256"
        }
      ],
      "name": "tokenPurchase",
      "type": "event"
    },
    {
      "inputs": [],
      "name": "LinkToken",
      "outputs": [
        {
          "internalType": "address",
          "name": "",
          "type": "address"
        }
      ],
      "stateMutability": "view",
      "type": "function"
    },
    {
      "inputs": [],
      "name": "VRFCoordinator",
      "outputs": [
        {
          "internalType": "address",
          "name": "",
          "type": "address"
        }
      ],
      "stateMutability": "view",
      "type": "function"
    },
    {
      "inputs": [
        {
          "internalType": "address",
          "name": "to",
          "type": "address"
        },
        {
          "internalType": "uint256",
          "name": "tokenId",
          "type": "uint256"
        }
      ],
      "name": "approve",
      "outputs": [],
      "stateMutability": "nonpayable",
      "type": "function"
    },
    {
      "inputs": [
        {
          "internalType": "address",
          "name": "owner",
          "type": "address"
        }
      ],
      "name": "balanceOf",
      "outputs": [
        {
          "internalType": "uint256",
          "name": "",
          "type": "uint256"
        }
      ],
      "stateMutability": "view",
      "type": "function"
    },
    {
      "inputs": [],
      "name": "bbtTokensPerEth",
      "outputs": [
        {
          "internalType": "uint256",
          "name": "",
          "type": "uint256"
        }
      ],
      "stateMutability": "view",
      "type": "function"
    },
    {
      "inputs": [],
      "name": "buy",
      "outputs": [],
      "stateMutability": "payable",
      "type": "function"
    },
    {
      "inputs": [
        {
          "internalType": "uint256",
          "name": "",
          "type": "uint256"
        }
      ],
      "name": "characters",
      "outputs": [
        {
          "internalType": "string",
          "name": "name",
          "type": "string"
        },
        {
          "internalType": "string",
          "name": "occupation",
          "type": "string"
        },
        {
          "internalType": "string",
          "name": "lover",
          "type": "string"
        },
        {
          "internalType": "string",
          "name": "university",
          "type": "string"
        },
        {
          "internalType": "uint256",
          "name": "senseOfHumour",
          "type": "uint256"
        },
        {
          "internalType": "uint256",
          "name": "extrovert",
          "type": "uint256"
        },
        {
          "internalType": "uint256",
          "name": "socialSkills",
          "type": "uint256"
        },
        {
          "internalType": "uint256",
          "name": "sensitive",
          "type": "uint256"
        },
        {
          "internalType": "uint256",
          "name": "iq",
          "type": "uint256"
        }
      ],
      "stateMutability": "view",
      "type": "function"
    },
    {
      "inputs": [
        {
          "internalType": "uint256",
          "name": "tokenId",
          "type": "uint256"
        }
      ],
      "name": "getApproved",
      "outputs": [
        {
          "internalType": "address",
          "name": "",
          "type": "address"
        }
      ],
      "stateMutability": "view",
      "type": "function"
    },
    {
      "inputs": [],
      "name": "getNumberOfCharacters",
      "outputs": [
        {
          "internalType": "uint256",
          "name": "",
          "type": "uint256"
        }
      ],
      "stateMutability": "view",
      "type": "function"
    },
    {
      "inputs": [
        {
          "internalType": "uint256",
          "name": "tokenId",
          "type": "uint256"
        }
      ],
      "name": "getTokenURI",
      "outputs": [
        {
          "internalType": "string",
          "name": "",
          "type": "string"
        }
      ],
      "stateMutability": "view",
      "type": "function"
    },
    {
      "inputs": [
        {
          "internalType": "address",
          "name": "owner",
          "type": "address"
        },
        {
          "internalType": "address",
          "name": "operator",
          "type": "address"
        }
      ],
      "name": "isApprovedForAll",
      "outputs": [
        {
          "internalType": "bool",
          "name": "",
          "type": "bool"
        }
      ],
      "stateMutability": "view",
      "type": "function"
    },
    {
      "inputs": [],
      "name": "name",
      "outputs": [
        {
          "internalType": "string",
          "name": "",
          "type": "string"
        }
      ],
      "stateMutability": "view",
      "type": "function"
    },
    {
      "inputs": [
        {
          "internalType": "uint256",
          "name": "tokenId",
          "type": "uint256"
        }
      ],
      "name": "ownerOf",
      "outputs": [
        {
          "internalType": "address",
          "name": "",
          "type": "address"
        }
      ],
      "stateMutability": "view",
      "type": "function"
    },
    {
      "inputs": [],
      "name": "randomResult",
      "outputs": [
        {
          "internalType": "uint256",
          "name": "",
          "type": "uint256"
        }
      ],
      "stateMutability": "view",
      "type": "function"
    },
    {
      "inputs": [
        {
          "internalType": "bytes32",
          "name": "requestId",
          "type": "bytes32"
        },
        {
          "internalType": "uint256",
          "name": "randomness",
          "type": "uint256"
        }
      ],
      "name": "rawFulfillRandomness",
      "outputs": [],
      "stateMutability": "nonpayable",
      "type": "function"
    },
    {
      "inputs": [
        {
          "internalType": "uint256",
          "name": "_iq",
          "type": "uint256"
        }
      ],
      "name": "requestRandomAttributes",
      "outputs": [
        {
          "internalType": "bytes32",
          "name": "",
          "type": "bytes32"
        }
      ],
      "stateMutability": "nonpayable",
      "type": "function"
    },
    {
      "inputs": [
        {
          "internalType": "address",
          "name": "from",
          "type": "address"
        },
        {
          "internalType": "address",
          "name": "to",
          "type": "address"
        },
        {
          "internalType": "uint256",
          "name": "tokenId",
          "type": "uint256"
        }
      ],
      "name": "safeTransferFrom",
      "outputs": [],
      "stateMutability": "nonpayable",
      "type": "function"
    },
    {
      "inputs": [
        {
          "internalType": "address",
          "name": "from",
          "type": "address"
        },
        {
          "internalType": "address",
          "name": "to",
          "type": "address"
        },
        {
          "internalType": "uint256",
          "name": "tokenId",
          "type": "uint256"
        },
        {
          "internalType": "bytes",
          "name": "_data",
          "type": "bytes"
        }
      ],
      "name": "safeTransferFrom",
      "outputs": [],
      "stateMutability": "nonpayable",
      "type": "function"
    },
    {
      "inputs": [
        {
          "internalType": "address",
          "name": "operator",
          "type": "address"
        },
        {
          "internalType": "bool",
          "name": "approved",
          "type": "bool"
        }
      ],
      "name": "setApprovalForAll",
      "outputs": [],
      "stateMutability": "nonpayable",
      "type": "function"
    },
    {
      "inputs": [
        {
          "internalType": "uint256",
          "name": "tokenId",
          "type": "uint256"
        },
        {
          "internalType": "string",
          "name": "_tokenURI",
          "type": "string"
        }
      ],
      "name": "setTokenURI",
      "outputs": [],
      "stateMutability": "nonpayable",
      "type": "function"
    },
    {
      "inputs": [
        {
          "internalType": "bytes4",
          "name": "interfaceId",
          "type": "bytes4"
        }
      ],
      "name": "supportsInterface",
      "outputs": [
        {
          "internalType": "bool",
          "name": "",
          "type": "bool"
        }
      ],
      "stateMutability": "view",
      "type": "function"
    },
    {
      "inputs": [],
      "name": "symbol",
      "outputs": [
        {
          "internalType": "string",
          "name": "",
          "type": "string"
        }
      ],
      "stateMutability": "view",
      "type": "function"
    },
    {
      "inputs": [],
      "name": "token",
      "outputs": [
        {
          "internalType": "contract IERC20",
          "name": "",
          "type": "address"
        }
      ],
      "stateMutability": "view",
      "type": "function"
    },
    {
      "inputs": [
        {
          "internalType": "uint256",
          "name": "tokenId",
          "type": "uint256"
        }
      ],
      "name": "tokenURI",
      "outputs": [
        {
          "internalType": "string",
          "name": "",
          "type": "string"
        }
      ],
      "stateMutability": "view",
      "type": "function"
    },
    {
      "inputs": [
        {
          "internalType": "address",
          "name": "from",
          "type": "address"
        },
        {
          "internalType": "address",
          "name": "to",
          "type": "address"
        },
        {
          "internalType": "uint256",
          "name": "tokenId",
          "type": "uint256"
        }
      ],
      "name": "transferFrom",
      "outputs": [],
      "stateMutability": "nonpayable",
      "type": "function"
    }
  ],
  "bytecode": "0x60c06040526103e8600f553480156200001757600080fd5b50604051620057203803806200572083398181016040528101906200003d91906200080f565b83836040518060400160405280600d81526020017f42696742616e675468656f7279000000000000000000000000000000000000008152506040518060400160405280600381526020017f42425400000000000000000000000000000000000000000000000000000000008152508160009080519060200190620000c392919062000652565b508060019080519060200190620000dc92919062000652565b5050508173ffffffffffffffffffffffffffffffffffffffff1660a08173ffffffffffffffffffffffffffffffffffffffff1660601b815250508073ffffffffffffffffffffffffffffffffffffffff1660808173ffffffffffffffffffffffffffffffffffffffff1660601b81525050505060405180608001604052806040518060400160405280600381526020017f52616a000000000000000000000000000000000000000000000000000000000081525081526020016040518060400160405280600681526020017f486f77617264000000000000000000000000000000000000000000000000000081525081526020016040518060400160405280600781526020017f4c65616e6f72640000000000000000000000000000000000000000000000000081525081526020016040518060400160405280600781526020017f5368656c646f6e00000000000000000000000000000000000000000000000000815250815250601190600462000256929190620006e3565b5060405180608001604052806040518060400160405280600881526020017f43696e6e616d6f6e00000000000000000000000000000000000000000000000081525081526020016040518060400160405280600a81526020017f4265726e6164657474650000000000000000000000000000000000000000000081525081526020016040518060400160405280600581526020017f50656e6e7900000000000000000000000000000000000000000000000000000081525081526020016040518060400160405280600381526020017f416d79000000000000000000000000000000000000000000000000000000000081525081525060159060046200035e929190620006e3565b5060405180608001604052806040518060400160405280601481526020017f43616d62726964676520556e697665727369747900000000000000000000000081525081526020016040518060400160405280600381526020017f4d4954000000000000000000000000000000000000000000000000000000000081525081526020016040518060400160405280601481526020017f5072696e6365746f6e20556e697665727369747900000000000000000000000081525081526020016040518060400160405280600781526020017f43616c7465636800000000000000000000000000000000000000000000000000815250815250601990600462000466929190620006e3565b5060405180608001604052806040518060400160405280600c81526020017f417374726f50687973696373000000000000000000000000000000000000000081525081526020016040518060400160405280601281526020017f4165726f737061636520656e67696e656572000000000000000000000000000081525081526020016040518060400160405280601681526020017f4578706572696d656e74616c205068797369636973740000000000000000000081525081526020016040518060400160405280601581526020017f5468656f7269746963616c205068797369636973740000000000000000000000815250815250601d9060046200056e929190620006e3565b5083600c60006101000a81548173ffffffffffffffffffffffffffffffffffffffff021916908373ffffffffffffffffffffffffffffffffffffffff16021790555082600d60006101000a81548173ffffffffffffffffffffffffffffffffffffffff021916908373ffffffffffffffffffffffffffffffffffffffff1602179055508160098190555067016345785d8a0000600a8190555080600e60006101000a81548173ffffffffffffffffffffffffffffffffffffffff021916908373ffffffffffffffffffffffffffffffffffffffff160217905550505050506200098b565b8280546200066090620008d3565b90600052602060002090601f016020900481019282620006845760008555620006d0565b82601f106200069f57805160ff1916838001178555620006d0565b82800160010185558215620006d0579182015b82811115620006cf578251825591602001919060010190620006b2565b5b509050620006df91906200073d565b5090565b82600481019282156200072a579160200282015b82811115620007295782518290805190602001906200071892919062000652565b5091602001919060010190620006f7565b5b5090506200073991906200075c565b5090565b5b80821115620007585760008160009055506001016200073e565b5090565b5b8082111562000780576000818162000776919062000784565b506001016200075d565b5090565b5080546200079290620008d3565b6000825580601f10620007a65750620007c7565b601f016020900490600052602060002090810190620007c691906200073d565b5b50565b600081519050620007db816200093d565b92915050565b600081519050620007f28162000957565b92915050565b600081519050620008098162000971565b92915050565b600080600080608085870312156200082c576200082b62000938565b5b60006200083c87828801620007ca565b94505060206200084f87828801620007ca565b93505060406200086287828801620007e1565b92505060606200087587828801620007f8565b91505092959194509250565b60006200088e82620008b3565b9050919050565b6000819050919050565b6000620008ac8262000881565b9050919050565b600073ffffffffffffffffffffffffffffffffffffffff82169050919050565b60006002820490506001821680620008ec57607f821691505b6020821081141562000903576200090262000909565b5b50919050565b7f4e487b7100000000000000000000000000000000000000000000000000000000600052602260045260246000fd5b600080fd5b620009488162000881565b81146200095457600080fd5b50565b620009628162000895565b81146200096e57600080fd5b50565b6200097c816200089f565b81146200098857600080fd5b50565b60805160601c60a05160601c614d5b620009c560003960008181610e6901526124b6015260008181610fed015261247a0152614d5b6000f3fe6080604052600436106101665760003560e01c80634f8e2fdf116100d15780639865f7561161008a578063b88d4fde11610064578063b88d4fde1461054b578063c87b56dd14610574578063e985e9c5146105b1578063fc0c546a146105ee57610166565b80639865f756146104db578063a22cb46514610518578063a6f2ae3a1461054157610166565b80634f8e2fdf146103b757806362d36dec146103e25780636352211e1461040d57806370a082311461044a57806394985ddd1461048757806395d89b41146104b057610166565b80632e94381b116101235780632e94381b1461028b57806333b60863146102b65780633bb3a24d146102e157806342619f661461031e57806342842e0e146103495780634810bc591461037257610166565b806301ffc9a71461016b57806306fdde03146101a8578063081812fc146101d3578063095ea7b314610210578063162094c41461023957806323b872dd14610262575b600080fd5b34801561017757600080fd5b50610192600480360381019061018d9190613520565b610619565b60405161019f9190613c3a565b60405180910390f35b3480156101b457600080fd5b506101bd6106fb565b6040516101ca9190613cf9565b60405180910390f35b3480156101df57600080fd5b506101fa60048036038101906101f5919061357a565b61078d565b6040516102079190613b0c565b60405180910390f35b34801561021c57600080fd5b5061023760048036038101906102329190613473565b610812565b005b34801561024557600080fd5b50610260600480360381019061025b91906135d4565b61092a565b005b34801561026e57600080fd5b506102896004803603810190610284919061335d565b610988565b005b34801561029757600080fd5b506102a06109e8565b6040516102ad91906140a4565b60405180910390f35b3480156102c257600080fd5b506102cb6109ee565b6040516102d89190613b0c565b60405180910390f35b3480156102ed57600080fd5b506103086004803603810190610303919061357a565b610a14565b6040516103159190613cf9565b60405180910390f35b34801561032a57600080fd5b50610333610a26565b60405161034091906140a4565b60405180910390f35b34801561035557600080fd5b50610370600480360381019061036b919061335d565b610a2c565b005b34801561037e57600080fd5b506103996004803603810190610394919061357a565b610a4c565b6040516103ae99989796959493929190613d1b565b60405180910390f35b3480156103c357600080fd5b506103cc610cca565b6040516103d99190613b0c565b60405180910390f35b3480156103ee57600080fd5b506103f7610cf0565b60405161040491906140a4565b60405180910390f35b34801561041957600080fd5b50610434600480360381019061042f919061357a565b610cfd565b6040516104419190613b0c565b60405180910390f35b34801561045657600080fd5b50610471600480360381019061046c91906132f0565b610daf565b60405161047e91906140a4565b60405180910390f35b34801561049357600080fd5b506104ae60048036038101906104a991906134e0565b610e67565b005b3480156104bc57600080fd5b506104c5610f03565b6040516104d29190613cf9565b60405180910390f35b3480156104e757600080fd5b5061050260048036038101906104fd919061357a565b610f95565b60405161050f9190613c55565b60405180910390f35b34801561052457600080fd5b5061053f600480360381019061053a9190613433565b61130b565b005b610549611321565b005b34801561055757600080fd5b50610572600480360381019061056d91906133b0565b611599565b005b34801561058057600080fd5b5061059b6004803603810190610596919061357a565b6115fb565b6040516105a89190613cf9565b60405180910390f35b3480156105bd57600080fd5b506105d860048036038101906105d3919061331d565b61174d565b6040516105e59190613c3a565b60405180910390f35b3480156105fa57600080fd5b506106036117e1565b6040516106109190613cde565b60405180910390f35b60007f80ac58cd000000000000000000000000000000000000000000000000000000007bffffffffffffffffffffffffffffffffffffffffffffffffffffffff1916827bffffffffffffffffffffffffffffffffffffffffffffffffffffffff191614806106e457507f5b5e139f000000000000000000000000000000000000000000000000000000007bffffffffffffffffffffffffffffffffffffffffffffffffffffffff1916827bffffffffffffffffffffffffffffffffffffffffffffffffffffffff1916145b806106f457506106f382611807565b5b9050919050565b60606000805461070a906144c8565b80601f0160208091040260200160405190810160405280929190818152602001828054610736906144c8565b80156107835780601f1061075857610100808354040283529160200191610783565b820191906000526020600020905b81548152906001019060200180831161076657829003601f168201915b5050505050905090565b600061079882611871565b6107d7576040517f08c379a00000000000000000000000000000000000000000000000000000000081526004016107ce90613f84565b60405180910390fd5b6004600083815260200190815260200160002060009054906101000a900473ffffffffffffffffffffffffffffffffffffffff169050919050565b600061081d82610cfd565b90508073ffffffffffffffffffffffffffffffffffffffff168373ffffffffffffffffffffffffffffffffffffffff16141561088e576040517f08c379a000000000000000000000000000000000000000000000000000000000815260040161088590614044565b60405180910390fd5b8073ffffffffffffffffffffffffffffffffffffffff166108ad6118dd565b73ffffffffffffffffffffffffffffffffffffffff1614806108dc57506108db816108d66118dd565b61174d565b5b61091b576040517f08c379a000000000000000000000000000000000000000000000000000000000815260040161091290613e84565b60405180910390fd5b61092583836118e5565b505050565b61093b6109356118dd565b8361199e565b61097a576040517f08c379a000000000000000000000000000000000000000000000000000000000815260040161097190614084565b60405180910390fd5b6109848282611a7c565b5050565b6109996109936118dd565b8261199e565b6109d8576040517f08c379a00000000000000000000000000000000000000000000000000000000081526004016109cf90614084565b60405180910390fd5b6109e3838383611af0565b505050565b600f5481565b600c60009054906101000a900473ffffffffffffffffffffffffffffffffffffffff1681565b6060610a1f826115fb565b9050919050565b600b5481565b610a4783838360405180602001604052806000815250611599565b505050565b60218181548110610a5c57600080fd5b9060005260206000209060090201600091509050806000018054610a7f906144c8565b80601f0160208091040260200160405190810160405280929190818152602001828054610aab906144c8565b8015610af85780601f10610acd57610100808354040283529160200191610af8565b820191906000526020600020905b815481529060010190602001808311610adb57829003601f168201915b505050505090806001018054610b0d906144c8565b80601f0160208091040260200160405190810160405280929190818152602001828054610b39906144c8565b8015610b865780601f10610b5b57610100808354040283529160200191610b86565b820191906000526020600020905b815481529060010190602001808311610b6957829003601f168201915b505050505090806002018054610b9b906144c8565b80601f0160208091040260200160405190810160405280929190818152602001828054610bc7906144c8565b8015610c145780601f10610be957610100808354040283529160200191610c14565b820191906000526020600020905b815481529060010190602001808311610bf757829003601f168201915b505050505090806003018054610c29906144c8565b80601f0160208091040260200160405190810160405280929190818152602001828054610c55906144c8565b8015610ca25780601f10610c7757610100808354040283529160200191610ca2565b820191906000526020600020905b815481529060010190602001808311610c8557829003601f168201915b5050505050908060040154908060050154908060060154908060070154908060080154905089565b600d60009054906101000a900473ffffffffffffffffffffffffffffffffffffffff1681565b6000602180549050905090565b6000806002600084815260200190815260200160002060009054906101000a900473ffffffffffffffffffffffffffffffffffffffff169050600073ffffffffffffffffffffffffffffffffffffffff168173ffffffffffffffffffffffffffffffffffffffff161415610da6576040517f08c379a0000000000000000000000000000000000000000000000000000000008152600401610d9d90613ee4565b60405180910390fd5b80915050919050565b60008073ffffffffffffffffffffffffffffffffffffffff168273ffffffffffffffffffffffffffffffffffffffff161415610e20576040517f08c379a0000000000000000000000000000000000000000000000000000000008152600401610e1790613ec4565b60405180910390fd5b600360008373ffffffffffffffffffffffffffffffffffffffff1673ffffffffffffffffffffffffffffffffffffffff168152602001908152602001600020549050919050565b7f000000000000000000000000000000000000000000000000000000000000000073ffffffffffffffffffffffffffffffffffffffff163373ffffffffffffffffffffffffffffffffffffffff1614610ef5576040517f08c379a0000000000000000000000000000000000000000000000000000000008152600401610eec90614004565b60405180910390fd5b610eff8282611d4c565b5050565b606060018054610f12906144c8565b80601f0160208091040260200160405190810160405280929190818152602001828054610f3e906144c8565b8015610f8b5780601f10610f6057610100808354040283529160200191610f8b565b820191906000526020600020905b815481529060010190602001808311610f6e57829003601f168201915b5050505050905090565b600060648210158015610fa9575060c88211155b610fe8576040517f08c379a0000000000000000000000000000000000000000000000000000000008152600401610fdf90614064565b60405180910390fd5b600a547f000000000000000000000000000000000000000000000000000000000000000073ffffffffffffffffffffffffffffffffffffffff166370a08231306040518263ffffffff1660e01b81526004016110449190613b0c565b60206040518083038186803b15801561105c57600080fd5b505afa158015611070573d6000803e3d6000fd5b505050506040513d601f19601f8201168201806040525081019061109491906135a7565b10156110d5576040517f08c379a00000000000000000000000000000000000000000000000000000000081526004016110cc90613e44565b60405180910390fd5b816010819055506000600f54670de0b6b3a76400006110f491906142ac565b90506000600e60009054906101000a900473ffffffffffffffffffffffffffffffffffffffff1673ffffffffffffffffffffffffffffffffffffffff1663dd62ed3e33306040518363ffffffff1660e01b8152600401611155929190613b27565b60206040518083038186803b15801561116d57600080fd5b505afa158015611181573d6000803e3d6000fd5b505050506040513d601f19601f820116820180604052508101906111a591906135a7565b9050818110156111ea576040517f08c379a00000000000000000000000000000000000000000000000000000000081526004016111e190613ea4565b60405180910390fd5b600e60009054906101000a900473ffffffffffffffffffffffffffffffffffffffff1673ffffffffffffffffffffffffffffffffffffffff166323b872dd3330856040518463ffffffff1660e01b815260040161124993929190613b50565b602060405180830381600087803b15801561126357600080fd5b505af1158015611277573d6000803e3d6000fd5b505050506040513d601f19601f8201168201806040525081019061129b91906134b3565b5060006112ac600954600a54612476565b9050336022600083815260200190815260200160002060006101000a81548173ffffffffffffffffffffffffffffffffffffffff021916908373ffffffffffffffffffffffffffffffffffffffff160217905550809350505050919050565b61131d6113166118dd565b83836125d8565b5050565b60003411611364576040517f08c379a000000000000000000000000000000000000000000000000000000000815260040161135b90614024565b60405180910390fd5b6000600f543461137491906142dd565b90506000600e60009054906101000a900473ffffffffffffffffffffffffffffffffffffffff1673ffffffffffffffffffffffffffffffffffffffff166370a08231306040518263ffffffff1660e01b81526004016113d39190613b0c565b60206040518083038186803b1580156113eb57600080fd5b505afa1580156113ff573d6000803e3d6000fd5b505050506040513d601f19601f8201168201806040525081019061142391906135a7565b905080821115611468576040517f08c379a000000000000000000000000000000000000000000000000000000000815260040161145f90613fa4565b60405180910390fd5b6000600e60009054906101000a900473ffffffffffffffffffffffffffffffffffffffff1673ffffffffffffffffffffffffffffffffffffffff1663a9059cbb33856040518363ffffffff1660e01b81526004016114c7929190613bd3565b602060405180830381600087803b1580156114e157600080fd5b505af11580156114f5573d6000803e3d6000fd5b505050506040513d601f19601f8201168201806040525081019061151991906134b3565b90508061155b576040517f08c379a000000000000000000000000000000000000000000000000000000000815260040161155290613f04565b60405180910390fd5b7f03b753dd19f3b11213f8385cdc8c6259c5c5c4fd9eb362c9fb1944ce12e3c1b9338460405161158c929190613bd3565b60405180910390a1505050565b6115aa6115a46118dd565b8361199e565b6115e9576040517f08c379a00000000000000000000000000000000000000000000000000000000081526004016115e090614084565b60405180910390fd5b6115f584848484612745565b50505050565b606061160682611871565b611645576040517f08c379a000000000000000000000000000000000000000000000000000000000815260040161163c90613f64565b60405180910390fd5b6000600660008481526020019081526020016000208054611665906144c8565b80601f0160208091040260200160405190810160405280929190818152602001828054611691906144c8565b80156116de5780601f106116b3576101008083540402835291602001916116de565b820191906000526020600020905b8154815290600101906020018083116116c157829003601f168201915b5050505050905060006116ef6127a1565b9050600081511415611705578192505050611748565b60008251111561173a578082604051602001611722929190613ae8565b60405160208183030381529060405292505050611748565b611743846127b8565b925050505b919050565b6000600560008473ffffffffffffffffffffffffffffffffffffffff1673ffffffffffffffffffffffffffffffffffffffff16815260200190815260200160002060008373ffffffffffffffffffffffffffffffffffffffff1673ffffffffffffffffffffffffffffffffffffffff16815260200190815260200160002060009054906101000a900460ff16905092915050565b600e60009054906101000a900473ffffffffffffffffffffffffffffffffffffffff1681565b60007f01ffc9a7000000000000000000000000000000000000000000000000000000007bffffffffffffffffffffffffffffffffffffffffffffffffffffffff1916827bffffffffffffffffffffffffffffffffffffffffffffffffffffffff1916149050919050565b60008073ffffffffffffffffffffffffffffffffffffffff166002600084815260200190815260200160002060009054906101000a900473ffffffffffffffffffffffffffffffffffffffff1673ffffffffffffffffffffffffffffffffffffffff1614159050919050565b600033905090565b816004600083815260200190815260200160002060006101000a81548173ffffffffffffffffffffffffffffffffffffffff021916908373ffffffffffffffffffffffffffffffffffffffff160217905550808273ffffffffffffffffffffffffffffffffffffffff1661195883610cfd565b73ffffffffffffffffffffffffffffffffffffffff167f8c5be1e5ebec7d5bd14f71427d1e84f3dd0314c0f7b2291e5b200ac8c7c3b92560405160405180910390a45050565b60006119a982611871565b6119e8576040517f08c379a00000000000000000000000000000000000000000000000000000000081526004016119df90613e64565b60405180910390fd5b60006119f383610cfd565b90508073ffffffffffffffffffffffffffffffffffffffff168473ffffffffffffffffffffffffffffffffffffffff161480611a6257508373ffffffffffffffffffffffffffffffffffffffff16611a4a8461078d565b73ffffffffffffffffffffffffffffffffffffffff16145b80611a735750611a72818561174d565b5b91505092915050565b611a8582611871565b611ac4576040517f08c379a0000000000000000000000000000000000000000000000000000000008152600401611abb90613f24565b60405180910390fd5b80600660008481526020019081526020016000209080519060200190611aeb929190613038565b505050565b8273ffffffffffffffffffffffffffffffffffffffff16611b1082610cfd565b73ffffffffffffffffffffffffffffffffffffffff1614611b66576040517f08c379a0000000000000000000000000000000000000000000000000000000008152600401611b5d90613fc4565b60405180910390fd5b600073ffffffffffffffffffffffffffffffffffffffff168273ffffffffffffffffffffffffffffffffffffffff161415611bd6576040517f08c379a0000000000000000000000000000000000000000000000000000000008152600401611bcd90613e04565b60405180910390fd5b611be183838361285f565b611bec6000826118e5565b6001600360008573ffffffffffffffffffffffffffffffffffffffff1673ffffffffffffffffffffffffffffffffffffffff1681526020019081526020016000206000828254611c3c9190614337565b925050819055506001600360008473ffffffffffffffffffffffffffffffffffffffff1673ffffffffffffffffffffffffffffffffffffffff1681526020019081526020016000206000828254611c939190614256565b92505081905550816002600083815260200190815260200160002060006101000a81548173ffffffffffffffffffffffffffffffffffffffff021916908373ffffffffffffffffffffffffffffffffffffffff160217905550808273ffffffffffffffffffffffffffffffffffffffff168473ffffffffffffffffffffffffffffffffffffffff167fddf252ad1be2c89b69c2b068fc378daa952ba7f163c4a11628f55a4df523b3ef60405160405180910390a4505050565b6000611d586008612864565b905060005b6021805490508111611e885760118160048110611d7d57611d7c614646565b5b0160236000868152602001908152602001600020600001908054611da0906144c8565b611dab9291906130be565b50601d8160048110611dc057611dbf614646565b5b0160236000868152602001908152602001600020600101908054611de3906144c8565b611dee9291906130be565b5060158160048110611e0357611e02614646565b5b0160236000868152602001908152602001600020600201908054611e26906144c8565b611e319291906130be565b5060198160048110611e4657611e45614646565b5b0160236000868152602001908152602001600020600301908054611e69906144c8565b611e749291906130be565b508080611e809061452b565b915050611d5d565b5060006064836001604051602001611ea19291906140bf565b6040516020818303038152906040528051906020012060001c611ec49190614588565b905060006064846002604051602001611ede9291906140e8565b6040516020818303038152906040528051906020012060001c611f019190614588565b905060006064856003604051602001611f1b929190614111565b6040516020818303038152906040528051906020012060001c611f3e9190614588565b905060006064866004604051602001611f5892919061413a565b6040516020818303038152906040528051906020012060001c611f7b9190614588565b905060006064876005604051602001611f95929190614163565b6040516020818303038152906040528051906020012060001c611fb89190614588565b9050606481611fc79190614256565b90506000604051806101200160405280602360008c81526020019081526020016000206000018054611ff8906144c8565b80601f0160208091040260200160405190810160405280929190818152602001828054612024906144c8565b80156120715780601f1061204657610100808354040283529160200191612071565b820191906000526020600020905b81548152906001019060200180831161205457829003601f168201915b50505050508152602001602360008c8152602001908152602001600020600101805461209c906144c8565b80601f01602080910402602001604051908101604052809291908181526020018280546120c8906144c8565b80156121155780601f106120ea57610100808354040283529160200191612115565b820191906000526020600020905b8154815290600101906020018083116120f857829003601f168201915b50505050508152602001602360008c81526020019081526020016000206002018054612140906144c8565b80601f016020809104026020016040519081016040528092919081815260200182805461216c906144c8565b80156121b95780601f1061218e576101008083540402835291602001916121b9565b820191906000526020600020905b81548152906001019060200180831161219c57829003601f168201915b50505050508152602001602360008c815260200190815260200160002060030180546121e4906144c8565b80601f0160208091040260200160405190810160405280929190818152602001828054612210906144c8565b801561225d5780601f106122325761010080835404028352916020019161225d565b820191906000526020600020905b81548152906001019060200180831161224057829003601f168201915b5050505050815260200187815260200186815260200185815260200184815260200183815250905080602360008b815260200190815260200160002060008201518160000190805190602001906122b5929190613038565b5060208201518160010190805190602001906122d2929190613038565b5060408201518160020190805190602001906122ef929190613038565b50606082015181600301908051906020019061230c929190613038565b506080820151816004015560a0820151816005015560c0820151816006015560e0820151816007015561010082015181600801559050506021819080600181540180825580915050600190039060005260206000209060090201600090919091909150600082015181600001908051906020019061238b929190613038565b5060208201518160010190805190602001906123a8929190613038565b5060408201518160020190805190602001906123c5929190613038565b5060608201518160030190805190602001906123e2929190613038565b506080820151816004015560a0820151816005015560c0820151816006015560e0820151816007015561010082015181600801555050612455602260008b815260200190815260200160002060009054906101000a900473ffffffffffffffffffffffffffffffffffffffff1688612872565b61245f6008612890565b61246b6010548a6128a6565b505050505050505050565b60007f000000000000000000000000000000000000000000000000000000000000000073ffffffffffffffffffffffffffffffffffffffff16634000aea07f0000000000000000000000000000000000000000000000000000000000000000848660006040516020016124ea929190613c70565b6040516020818303038152906040526040518463ffffffff1660e01b815260040161251793929190613bfc565b602060405180830381600087803b15801561253157600080fd5b505af1158015612545573d6000803e3d6000fd5b505050506040513d601f19601f8201168201806040525081019061256991906134b3565b50600061258c846000306007600089815260200190815260200160002054612a95565b9050600160076000868152602001908152602001600020546125ae9190614256565b60076000868152602001908152602001600020819055506125cf8482612ad1565b91505092915050565b8173ffffffffffffffffffffffffffffffffffffffff168373ffffffffffffffffffffffffffffffffffffffff161415612647576040517f08c379a000000000000000000000000000000000000000000000000000000000815260040161263e90613e24565b60405180910390fd5b80600560008573ffffffffffffffffffffffffffffffffffffffff1673ffffffffffffffffffffffffffffffffffffffff16815260200190815260200160002060008473ffffffffffffffffffffffffffffffffffffffff1673ffffffffffffffffffffffffffffffffffffffff16815260200190815260200160002060006101000a81548160ff0219169083151502179055508173ffffffffffffffffffffffffffffffffffffffff168373ffffffffffffffffffffffffffffffffffffffff167f17307eab39ab6107e8899845ad3d59bd9653f200f220920489ca2b5937696c31836040516127389190613c3a565b60405180910390a3505050565b612750848484611af0565b61275c84848484612b04565b61279b576040517f08c379a000000000000000000000000000000000000000000000000000000000815260040161279290613dc4565b60405180910390fd5b50505050565b606060405180602001604052806000815250905090565b60606127c382611871565b612802576040517f08c379a00000000000000000000000000000000000000000000000000000000081526004016127f990613fe4565b60405180910390fd5b600061280c6127a1565b9050600081511161282c5760405180602001604052806000815250612857565b8061283684612c9b565b604051602001612847929190613ae8565b6040516020818303038152906040525b915050919050565b505050565b600081600001549050919050565b61288c828260405180602001604052806000815250612dfc565b5050565b6001816000016000828254019250508190555050565b6000600f54670de0b6b3a76400006128be91906142ac565b9050600f60236000848152602001908152602001600020600801546128e39190614256565b8311158015612908575060236000838152602001908152602001600020600801548310155b806129575750600f60236000848152602001908152602001600020600801546129319190614337565b8310158015612956575060236000838152602001908152602001600020600801548311155b5b15612a90576000600e60009054906101000a900473ffffffffffffffffffffffffffffffffffffffff1673ffffffffffffffffffffffffffffffffffffffff1663a9059cbb6022600086815260200190815260200160002060009054906101000a900473ffffffffffffffffffffffffffffffffffffffff166002856129dd91906142dd565b6040518363ffffffff1660e01b81526004016129fa929190613bd3565b602060405180830381600087803b158015612a1457600080fd5b505af1158015612a28573d6000803e3d6000fd5b505050506040513d601f19601f82011682018060405250810190612a4c91906134b3565b905080612a8e576040517f08c379a0000000000000000000000000000000000000000000000000000000008152600401612a8590613f04565b60405180910390fd5b505b505050565b600084848484604051602001612aae9493929190613c99565b6040516020818303038152906040528051906020012060001c9050949350505050565b60008282604051602001612ae6929190613abc565b60405160208183030381529060405280519060200120905092915050565b6000612b258473ffffffffffffffffffffffffffffffffffffffff16612e57565b15612c8e578373ffffffffffffffffffffffffffffffffffffffff1663150b7a02612b4e6118dd565b8786866040518563ffffffff1660e01b8152600401612b709493929190613b87565b602060405180830381600087803b158015612b8a57600080fd5b505af1925050508015612bbb57506040513d601f19601f82011682018060405250810190612bb8919061354d565b60015b612c3e573d8060008114612beb576040519150601f19603f3d011682016040523d82523d6000602084013e612bf0565b606091505b50600081511415612c36576040517f08c379a0000000000000000000000000000000000000000000000000000000008152600401612c2d90613dc4565b60405180910390fd5b805181602001fd5b63150b7a0260e01b7bffffffffffffffffffffffffffffffffffffffffffffffffffffffff1916817bffffffffffffffffffffffffffffffffffffffffffffffffffffffff191614915050612c93565b600190505b949350505050565b60606000821415612ce3576040518060400160405280600181526020017f30000000000000000000000000000000000000000000000000000000000000008152509050612df7565b600082905060005b60008214612d15578080612cfe9061452b565b915050600a82612d0e91906142ac565b9150612ceb565b60008167ffffffffffffffff811115612d3157612d30614675565b5b6040519080825280601f01601f191660200182016040528015612d635781602001600182028036833780820191505090505b5090505b60008514612df057600182612d7c9190614337565b9150600a85612d8b9190614588565b6030612d979190614256565b60f81b818381518110612dad57612dac614646565b5b60200101907effffffffffffffffffffffffffffffffffffffffffffffffffffffffffffff1916908160001a905350600a85612de991906142ac565b9450612d67565b8093505050505b919050565b612e068383612e6a565b612e136000848484612b04565b612e52576040517f08c379a0000000000000000000000000000000000000000000000000000000008152600401612e4990613dc4565b60405180910390fd5b505050565b600080823b905060008111915050919050565b600073ffffffffffffffffffffffffffffffffffffffff168273ffffffffffffffffffffffffffffffffffffffff161415612eda576040517f08c379a0000000000000000000000000000000000000000000000000000000008152600401612ed190613f44565b60405180910390fd5b612ee381611871565b15612f23576040517f08c379a0000000000000000000000000000000000000000000000000000000008152600401612f1a90613de4565b60405180910390fd5b612f2f6000838361285f565b6001600360008473ffffffffffffffffffffffffffffffffffffffff1673ffffffffffffffffffffffffffffffffffffffff1681526020019081526020016000206000828254612f7f9190614256565b92505081905550816002600083815260200190815260200160002060006101000a81548173ffffffffffffffffffffffffffffffffffffffff021916908373ffffffffffffffffffffffffffffffffffffffff160217905550808273ffffffffffffffffffffffffffffffffffffffff16600073ffffffffffffffffffffffffffffffffffffffff167fddf252ad1be2c89b69c2b068fc378daa952ba7f163c4a11628f55a4df523b3ef60405160405180910390a45050565b828054613044906144c8565b90600052602060002090601f01602090048101928261306657600085556130ad565b82601f1061307f57805160ff19168380011785556130ad565b828001600101855582156130ad579182015b828111156130ac578251825591602001919060010190613091565b5b5090506130ba919061314b565b5090565b8280546130ca906144c8565b90600052602060002090601f0160209004810192826130ec576000855561313a565b82601f106130fd578054855561313a565b8280016001018555821561313a57600052602060002091601f016020900482015b8281111561313957825482559160010191906001019061311e565b5b509050613147919061314b565b5090565b5b8082111561316457600081600090555060010161314c565b5090565b600061317b613176846141b1565b61418c565b905082815260208101848484011115613197576131966146a9565b5b6131a2848285614486565b509392505050565b60006131bd6131b8846141e2565b61418c565b9050828152602081018484840111156131d9576131d86146a9565b5b6131e4848285614486565b509392505050565b6000813590506131fb81614cb2565b92915050565b60008135905061321081614cc9565b92915050565b60008151905061322581614cc9565b92915050565b60008135905061323a81614ce0565b92915050565b60008135905061324f81614cf7565b92915050565b60008151905061326481614cf7565b92915050565b600082601f83011261327f5761327e6146a4565b5b813561328f848260208601613168565b91505092915050565b600082601f8301126132ad576132ac6146a4565b5b81356132bd8482602086016131aa565b91505092915050565b6000813590506132d581614d0e565b92915050565b6000815190506132ea81614d0e565b92915050565b600060208284031215613306576133056146b3565b5b6000613314848285016131ec565b91505092915050565b60008060408385031215613334576133336146b3565b5b6000613342858286016131ec565b9250506020613353858286016131ec565b9150509250929050565b600080600060608486031215613376576133756146b3565b5b6000613384868287016131ec565b9350506020613395868287016131ec565b92505060406133a6868287016132c6565b9150509250925092565b600080600080608085870312156133ca576133c96146b3565b5b60006133d8878288016131ec565b94505060206133e9878288016131ec565b93505060406133fa878288016132c6565b925050606085013567ffffffffffffffff81111561341b5761341a6146ae565b5b6134278782880161326a565b91505092959194509250565b6000806040838503121561344a576134496146b3565b5b6000613458858286016131ec565b925050602061346985828601613201565b9150509250929050565b6000806040838503121561348a576134896146b3565b5b6000613498858286016131ec565b92505060206134a9858286016132c6565b9150509250929050565b6000602082840312156134c9576134c86146b3565b5b60006134d784828501613216565b91505092915050565b600080604083850312156134f7576134f66146b3565b5b60006135058582860161322b565b9250506020613516858286016132c6565b9150509250929050565b600060208284031215613536576135356146b3565b5b600061354484828501613240565b91505092915050565b600060208284031215613563576135626146b3565b5b600061357184828501613255565b91505092915050565b6000602082840312156135905761358f6146b3565b5b600061359e848285016132c6565b91505092915050565b6000602082840312156135bd576135bc6146b3565b5b60006135cb848285016132db565b91505092915050565b600080604083850312156135eb576135ea6146b3565b5b60006135f9858286016132c6565b925050602083013567ffffffffffffffff81111561361a576136196146ae565b5b61362685828601613298565b9150509250929050565b6136398161436b565b82525050565b6136488161437d565b82525050565b61365781614389565b82525050565b61366e61366982614389565b614574565b82525050565b600061367f82614213565b6136898185614229565b9350613699818560208601614495565b6136a2816146b8565b840191505092915050565b6136b6816143f6565b82525050565b6136c581614408565b82525050565b6136d48161441a565b82525050565b6136e38161442c565b82525050565b6136f28161443e565b82525050565b61370181614450565b82525050565b60006137128261421e565b61371c818561423a565b935061372c818560208601614495565b613735816146b8565b840191505092915050565b600061374b8261421e565b613755818561424b565b9350613765818560208601614495565b80840191505092915050565b600061377e60328361423a565b9150613789826146c9565b604082019050919050565b60006137a1601c8361423a565b91506137ac82614718565b602082019050919050565b60006137c460248361423a565b91506137cf82614741565b604082019050919050565b60006137e760198361423a565b91506137f282614790565b602082019050919050565b600061380a60108361423a565b9150613815826147b9565b602082019050919050565b600061382d602c8361423a565b9150613838826147e2565b604082019050919050565b600061385060388361423a565b915061385b82614831565b604082019050919050565b600061387360198361423a565b915061387e82614880565b602082019050919050565b6000613896602a8361423a565b91506138a1826148a9565b604082019050919050565b60006138b960298361423a565b91506138c4826148f8565b604082019050919050565b60006138dc60158361423a565b91506138e782614947565b602082019050919050565b60006138ff602e8361423a565b915061390a82614970565b604082019050919050565b600061392260208361423a565b915061392d826149bf565b602082019050919050565b600061394560318361423a565b9150613950826149e8565b604082019050919050565b6000613968602c8361423a565b915061397382614a37565b604082019050919050565b600061398b60218361423a565b915061399682614a86565b604082019050919050565b60006139ae60298361423a565b91506139b982614ad5565b604082019050919050565b60006139d1602f8361423a565b91506139dc82614b24565b604082019050919050565b60006139f4601f8361423a565b91506139ff82614b73565b602082019050919050565b6000613a1760218361423a565b9150613a2282614b9c565b604082019050919050565b6000613a3a60218361423a565b9150613a4582614beb565b604082019050919050565b6000613a5d601f8361423a565b9150613a6882614c3a565b602082019050919050565b6000613a8060318361423a565b9150613a8b82614c63565b604082019050919050565b613a9f816143df565b82525050565b613ab6613ab1826143df565b61457e565b82525050565b6000613ac8828561365d565b602082019150613ad88284613aa5565b6020820191508190509392505050565b6000613af48285613740565b9150613b008284613740565b91508190509392505050565b6000602082019050613b216000830184613630565b92915050565b6000604082019050613b3c6000830185613630565b613b496020830184613630565b9392505050565b6000606082019050613b656000830186613630565b613b726020830185613630565b613b7f6040830184613a96565b949350505050565b6000608082019050613b9c6000830187613630565b613ba96020830186613630565b613bb66040830185613a96565b8181036060830152613bc88184613674565b905095945050505050565b6000604082019050613be86000830185613630565b613bf56020830184613a96565b9392505050565b6000606082019050613c116000830186613630565b613c1e6020830185613a96565b8181036040830152613c308184613674565b9050949350505050565b6000602082019050613c4f600083018461363f565b92915050565b6000602082019050613c6a600083018461364e565b92915050565b6000604082019050613c85600083018561364e565b613c926020830184613a96565b9392505050565b6000608082019050613cae600083018761364e565b613cbb6020830186613a96565b613cc86040830185613630565b613cd56060830184613a96565b95945050505050565b6000602082019050613cf360008301846136ad565b92915050565b60006020820190508181036000830152613d138184613707565b905092915050565b6000610120820190508181036000830152613d36818c613707565b90508181036020830152613d4a818b613707565b90508181036040830152613d5e818a613707565b90508181036060830152613d728189613707565b9050613d816080830188613a96565b613d8e60a0830187613a96565b613d9b60c0830186613a96565b613da860e0830185613a96565b613db6610100830184613a96565b9a9950505050505050505050565b60006020820190508181036000830152613ddd81613771565b9050919050565b60006020820190508181036000830152613dfd81613794565b9050919050565b60006020820190508181036000830152613e1d816137b7565b9050919050565b60006020820190508181036000830152613e3d816137da565b9050919050565b60006020820190508181036000830152613e5d816137fd565b9050919050565b60006020820190508181036000830152613e7d81613820565b9050919050565b60006020820190508181036000830152613e9d81613843565b9050919050565b60006020820190508181036000830152613ebd81613866565b9050919050565b60006020820190508181036000830152613edd81613889565b9050919050565b60006020820190508181036000830152613efd816138ac565b9050919050565b60006020820190508181036000830152613f1d816138cf565b9050919050565b60006020820190508181036000830152613f3d816138f2565b9050919050565b60006020820190508181036000830152613f5d81613915565b9050919050565b60006020820190508181036000830152613f7d81613938565b9050919050565b60006020820190508181036000830152613f9d8161395b565b9050919050565b60006020820190508181036000830152613fbd8161397e565b9050919050565b60006020820190508181036000830152613fdd816139a1565b9050919050565b60006020820190508181036000830152613ffd816139c4565b9050919050565b6000602082019050818103600083015261401d816139e7565b9050919050565b6000602082019050818103600083015261403d81613a0a565b9050919050565b6000602082019050818103600083015261405d81613a2d565b9050919050565b6000602082019050818103600083015261407d81613a50565b9050919050565b6000602082019050818103600083015261409d81613a73565b9050919050565b60006020820190506140b96000830184613a96565b92915050565b60006040820190506140d46000830185613a96565b6140e160208301846136bc565b9392505050565b60006040820190506140fd6000830185613a96565b61410a60208301846136cb565b9392505050565b60006040820190506141266000830185613a96565b61413360208301846136da565b9392505050565b600060408201905061414f6000830185613a96565b61415c60208301846136e9565b9392505050565b60006040820190506141786000830185613a96565b61418560208301846136f8565b9392505050565b60006141966141a7565b90506141a282826144fa565b919050565b6000604051905090565b600067ffffffffffffffff8211156141cc576141cb614675565b5b6141d5826146b8565b9050602081019050919050565b600067ffffffffffffffff8211156141fd576141fc614675565b5b614206826146b8565b9050602081019050919050565b600081519050919050565b600081519050919050565b600082825260208201905092915050565b600082825260208201905092915050565b600081905092915050565b6000614261826143df565b915061426c836143df565b9250827fffffffffffffffffffffffffffffffffffffffffffffffffffffffffffffffff038211156142a1576142a06145b9565b5b828201905092915050565b60006142b7826143df565b91506142c2836143df565b9250826142d2576142d16145e8565b5b828204905092915050565b60006142e8826143df565b91506142f3836143df565b9250817fffffffffffffffffffffffffffffffffffffffffffffffffffffffffffffffff048311821515161561432c5761432b6145b9565b5b828202905092915050565b6000614342826143df565b915061434d836143df565b9250828210156143605761435f6145b9565b5b828203905092915050565b6000614376826143bf565b9050919050565b60008115159050919050565b6000819050919050565b60007fffffffff0000000000000000000000000000000000000000000000000000000082169050919050565b600073ffffffffffffffffffffffffffffffffffffffff82169050919050565b6000819050919050565b600060ff82169050919050565b600061440182614462565b9050919050565b6000614413826143e9565b9050919050565b6000614425826143e9565b9050919050565b6000614437826143e9565b9050919050565b6000614449826143e9565b9050919050565b600061445b826143e9565b9050919050565b600061446d82614474565b9050919050565b600061447f826143bf565b9050919050565b82818337600083830152505050565b60005b838110156144b3578082015181840152602081019050614498565b838111156144c2576000848401525b50505050565b600060028204905060018216806144e057607f821691505b602082108114156144f4576144f3614617565b5b50919050565b614503826146b8565b810181811067ffffffffffffffff8211171561452257614521614675565b5b80604052505050565b6000614536826143df565b91507fffffffffffffffffffffffffffffffffffffffffffffffffffffffffffffffff821415614569576145686145b9565b5b600182019050919050565b6000819050919050565b6000819050919050565b6000614593826143df565b915061459e836143df565b9250826145ae576145ad6145e8565b5b828206905092915050565b7f4e487b7100000000000000000000000000000000000000000000000000000000600052601160045260246000fd5b7f4e487b7100000000000000000000000000000000000000000000000000000000600052601260045260246000fd5b7f4e487b7100000000000000000000000000000000000000000000000000000000600052602260045260246000fd5b7f4e487b7100000000000000000000000000000000000000000000000000000000600052603260045260246000fd5b7f4e487b7100000000000000000000000000000000000000000000000000000000600052604160045260246000fd5b600080fd5b600080fd5b600080fd5b600080fd5b6000601f19601f8301169050919050565b7f4552433732313a207472616e7366657220746f206e6f6e20455243373231526560008201527f63656976657220696d706c656d656e7465720000000000000000000000000000602082015250565b7f4552433732313a20746f6b656e20616c7265616479206d696e74656400000000600082015250565b7f4552433732313a207472616e7366657220746f20746865207a65726f2061646460008201527f7265737300000000000000000000000000000000000000000000000000000000602082015250565b7f4552433732313a20617070726f766520746f2063616c6c657200000000000000600082015250565b7f4e6f7420656e6f756768204c494e4b2000000000000000000000000000000000600082015250565b7f4552433732313a206f70657261746f7220717565727920666f72206e6f6e657860008201527f697374656e7420746f6b656e0000000000000000000000000000000000000000602082015250565b7f4552433732313a20617070726f76652063616c6c6572206973206e6f74206f7760008201527f6e6572206e6f7220617070726f76656420666f7220616c6c0000000000000000602082015250565b7f436865636b2074686520746f6b656e20616c6c6f77616e636500000000000000600082015250565b7f4552433732313a2062616c616e636520717565727920666f7220746865207a6560008201527f726f206164647265737300000000000000000000000000000000000000000000602082015250565b7f4552433732313a206f776e657220717565727920666f72206e6f6e657869737460008201527f656e7420746f6b656e0000000000000000000000000000000000000000000000602082015250565b7f546f6b656e207472616e73666572206661696c65640000000000000000000000600082015250565b7f45524337323155524953746f726167653a2055524920736574206f66206e6f6e60008201527f6578697374656e7420746f6b656e000000000000000000000000000000000000602082015250565b7f4552433732313a206d696e7420746f20746865207a65726f2061646472657373600082015250565b7f45524337323155524953746f726167653a2055524920717565727920666f722060008201527f6e6f6e6578697374656e7420746f6b656e000000000000000000000000000000602082015250565b7f4552433732313a20617070726f76656420717565727920666f72206e6f6e657860008201527f697374656e7420746f6b656e0000000000000000000000000000000000000000602082015250565b7f4e6f7420656e6f75676820746f6b656e7320696e2074686520636f6e7472616360008201527f7400000000000000000000000000000000000000000000000000000000000000602082015250565b7f4552433732313a207472616e73666572206f6620746f6b656e2074686174206960008201527f73206e6f74206f776e0000000000000000000000000000000000000000000000602082015250565b7f4552433732314d657461646174613a2055524920717565727920666f72206e6f60008201527f6e6578697374656e7420746f6b656e0000000000000000000000000000000000602082015250565b7f4f6e6c7920565246436f6f7264696e61746f722063616e2066756c66696c6c00600082015250565b7f76616c75652073686f756c642062652067726561746572207468616e207a657260008201527f6f00000000000000000000000000000000000000000000000000000000000000602082015250565b7f4552433732313a20617070726f76616c20746f2063757272656e74206f776e6560008201527f7200000000000000000000000000000000000000000000000000000000000000602082015250565b7f49512072616e67652073686f756c64206c69657320696e203130302d32303000600082015250565b7f4552433732313a207472616e736665722063616c6c6572206973206e6f74206f60008201527f776e6572206e6f7220617070726f766564000000000000000000000000000000602082015250565b614cbb8161436b565b8114614cc657600080fd5b50565b614cd28161437d565b8114614cdd57600080fd5b50565b614ce981614389565b8114614cf457600080fd5b50565b614d0081614393565b8114614d0b57600080fd5b50565b614d17816143df565b8114614d2257600080fd5b5056fea26469706673582212209b82fa807918da6aece3bf2853be12397f244e3accc45bd3f7f3a475cf8c951a64736f6c63430008070033",
  "linkReferences": {},
  "deployedLinkReferences": {}
}